:020000040000FA
:040000008A11F92F39
:100F58000134831203139F01831603139F01831225
:100F680003131F108312031799019A019B0183121F
:100F7800031397018B01831203179E019F018316A8
:100F880003138501061687018312031715168312AA
:100F9800031387010710871008008A11AD278A11EB
:100FA80001308312031387000230F6000430F50085
:100FB800BA30F400F40BDE2FF50BDE2FF60BDE2F24
:100FC800000002308312031387000230F600043059
:100FD800F500BA30F400F40BEF2FF50BEF2FF60BFA
:100FE800EF2F0000D42F8A1100288A11AC278A110C
:080FF800F70083018A11D12FDB
:02400E00F73F7A
:00000001FF
