:020000040000FA
:040000008A11F92F39
:100F680001348A11D5278A110130831203138700AF
:100F78001A30F500F830F400F40BC02FF50BC02F31
:100F8800000002308312031387001A30F500F8308E
:100F9800F400F40BCD2FF50BCD2F0000B82F8A11DC
:100FA8000028831203139F01831603139F018312E2
:100FB80003131F108312031799019A019B018312CF
:100FC800031397018B01831203179E019F01831658
:100FD800031385010616870183120317151683125A
:100FE800031387010710871008008A11B4278A1194
:080FF800F60083018A11B52FF8
:02400E00F73F7A
:00000001FF
